:020000040800F2
:10400000500A0020D94000081D4A0008194A00083B
:1040100000000000000000000000000000000000A0
:104020000000000000000000000000006D500008CB
:104030000000000000000000854E0008C952000882
:10404000F1400008F1400008F1400008F14000088C
:10405000F1400008F1400008F1400008F14000087C
:10406000F1400008F1400008F1400008F14000086C
:10407000F1400008F1400008F1400008F14000085C
:10408000F1400008F1400008F1400008F14000084C
:10409000F1400008F1400008F1400008F14000083C
:1040A000F1400008F1400008F1400008F14000082C
:1040B000F5520008F1400008F1400008000000003F
:1040C0000448854600F0AAFA004800474960000805
:1040D000C046C046500A0020064880F308880648BB
:1040E000804706480047FEE7FEE7FEE7FEE7FEE7FB
:1040F000FEE70000500A0020D1520008C14000082D
:1041000030B50B46014600202022012409E00D466F
:10411000D5409D4205D31D469540491B25469540F7
:1041200040191546521E002DF1DC30BD03460B43ED
:104130009B0703D009E008C9121F08C0042AFAD25D
:1041400003E00B780370401C491C521EF9D27047E3
:10415000F0B50C465C4085B0E40FE40703944C00D6
:1041600000266408590094464908024602962243F4
:1041700021D062460A431ED06200570D4A000E034A
:104180002303550D012402462C492405781B1B0BE3
:10419000360B401823432643614600901C46501AB4
:1041A000B44103D30098401C009002E0921800989C
:1041B0005B41002803DA0020014605B0F0BD002075
:1041C000012109050746864611E064461D46141B79
:1041D000B54106D36546521BB341744607430C43B1
:1041E000A646CD0740084908284392185B4105467A
:1041F0000D43EAD11046184313D06046194650408B
:104200007140084306D06046101AB34106D201221D
:10421000002306E000220123DB0702E00122D24353
:104220005310009874460105381C6141029C039D9F
:104230000019694100F042F8BFE70000FD030000EB
:104240000EB505490291002100910A460B460191E5
:1042500000F041F803B000BD33040000F0B51FB416
:104260000646002082B005464024019100901BE0E4
:10427000019922460F46304600F0F2F9049A059B58
:10428000801A994110D310461946224600F0D8F9F9
:10429000361A8F410197224601200021009F00F02D
:1042A000CFF938184D4100902046641E0028DFDC0D
:1042B000019B00982946324607B0F0BD10B5002B8F
:1042C00008DA0024401C614192185B411A4301D175
:1042D0004008400010BDF0B51FB482B005460C0088
:1042E00003D0084601F07CF902E001F079F92030B2
:1042F000024600902146284600F0A2F9049B059A48
:1043000004460F4618431143084314D0184610437F
:104310001BD0009840210A1A1846059900F0A0F910
:1043200005460E46009A0599049800F089F908435D
:1043300005D0012004E02046394607B0F0BD00203A
:10434000C11705430E432C43374300990E9863056C
:10435000401A7905E40A00220C43FD0A0A3002D50E
:1043600000200146E9E70105101969410C9C0D9DEB
:1043700000196941FFF7A2FFDFE70000F0B507462B
:104380000846584087B0C00F049048000E465900B8
:1043900040084908BC1A884105D2384631461E46B5
:1043A00017460B4602465800400810434DD0300DCA
:1043B000039040055900400D490D0590401A0290A8
:1043C000402873DA18030121000B09050843019006
:1043D00004980092002806D01146019A4942002014
:1043E000904100910190029840210A1A0199009889
:1043F00000F026F905460C466B4607CB00F041F964
:10440000C0197141039A0E0D0023D71756401A4662
:104410007A40164344D0049A002A2DD0029A012AE9
:10442000039A15DC1205C01A914101263605001CBD
:104430007141D20F059ED2070093019202962A463F
:104440002346FFF748FF07B0F0BD38463146FAE78C
:104450001605234A0F46B218C01AB74101210905B3
:10446000001C4F4100187F41114618187941E20F96
:1044700010436D19644113E0E2076D0815436408A9
:10448000C2071443039A01261205C01A914136054A
:10449000001C7141CE07400830434908C018514103
:1044A0002A462346FFF70AFFCDE7FFE704980122DB
:1044B0004000C117121A00238B4104983146C417DB
:1044C000381AA141EEE730B40124E407634030BC60
:1044D00054E730B40124E407614030BC4EE70000EB
:1044E0000000E0FFF0B51FB488B00B9909980024D4
:1044F00048400999C00F490049080991C0070B9924
:104500000090490049080B9109990898A64608436C
:104510001CD00B990A98084318D009980124400030
:10452000420D4800410D099824050003000B20436B
:1045300009900B980003000B20430B9050181C4966
:104540004018002201901446104605E00020014664
:104550000DB0F0BD032801DA034600E003239C46BA
:10456000C11A0AAE0AE05F0008ADED5B4F00F75BD1
:104570007D430027AA187C41491C5B1E6145F2DD82
:10458000410004AB5A522104120C0A43240C401C73
:104590000828DFDB01980290009970460191009095
:1045A000059B049A07990698FFF795FED0E700004F
:1045B0000DFCFFFF4A0009030123090B1B051943EA
:1045C0000A4B10B5520D9A4202DA0020014610BD86
:1045D000064B34339A4203DC9A1A00F041F810BDBE
:1045E000034BD21800F02CF810BD0000FF030000B0
:1045F000CDFBFFFF10B5002904DB0124E407404296
:104600008C412146002B04DB1C460123DB07524270
:10461000A341994200D1904210BD0000064C0125F3
:10462000064E05E0E36807CC2B430C3C984710345A
:10463000B442F7D3FFF748FDDC600008FC600008D7
:1046400010B5202A04DB0146203A9140002010BD1D
:10465000914020239C1A0346E3401943904010BD2B
:1046600010B5202A04DB0846203AD040002110BDB6
:104670000B46D340D0402024A21A9140084319464B
:1046800010BD10B5202A06DBCB170846203A104192
:10469000C1170B4306E00B461341D0402024A21A59
:1046A00091400843194610BDFFB583B00C460294F3
:1046B00000200190002726E000261CE0721C0399D0
:1046C00051430846791CFFF71BFD0546A54201D959
:1046D000281B00E0601B05460298A84204D90295F9
:1046E00005980660069807600298002802D101200C
:1046F000019002E0761CFF2EE0D900BF019800284F
:1047000000D002E07F1C072FD6D900BF029807B067
:10471000F0BD000010B57D21C90010480068FFF70A
:10472000EFFC0446601E0E49884201D901200CE0CE
:10473000601E0C4948610321081F00F079FF00202A
:1047400008498861072008610020002801D000BFC7
:10475000FEE70021481E00F06BFF10BD2001002085
:10476000FFFFFF0000E000E001B504490098086089
:1047700000BF024800680028FBD108BD08010020E6
:1047800003490968890889000143014A116070479B
:10479000000001400149C86070470000002002404D
:1047A00010B504460848006902210843064908611B
:1047B00008464461006940210843034908610348F1
:1047C00000F048F810BD000000200240FF0F00007C
:1047D0000C48C068C007C00F002801D001207047F6
:1047E0000848C06804210840002801D00220F6E7EC
:1047F0000448C06810210840002801D00320EEE7DB
:104800000420ECE7002002400348006980210843AF
:1048100001490861704700000020024030B504469D
:104820000D460548006901210843034908612580B8
:104830000F2000F00FF830BD00200240024803496D
:1048400048600348486070472301674500200240E4
:10485000AB89EFCD10B5024600BFFFF7B9FF0346A5
:10486000521EFF2400E0641E002CFCD1012B01D15C
:10487000002AF2D10020054908613420C860002ACE
:1048800001D1052010BD1846FCE7000000200240C1
:10489000FEB505460E4617460196FFF7CFFF3520B9
:1048A000FFF778FF00240FE0285D0090601C285C73
:1048B000000200990843009000990198FFF7AEFFAD
:1048C0000198801C0190A41CBC42EDD3FFF79CFF13
:1048D000FEBDF8B50246CD782F073F0FCD781026E4
:1048E0003540002D01D08D782F431446002011E073
:1048F00085062B0E0D88012686403540002D07D0F9
:1049000025680F269E40B5433E469E4035432560B0
:10491000451CE8B20828EBDB141D0D882D1200950C
:10492000002011E085062B0E01258540009E3540B4
:10493000002D07D025680F269E40B5433E469E4079
:1049400035432560451CE8B20828EBDBCD78282DDF
:1049500004D155690E883543556106E0CD78482D60
:1049600003D115690E8835431561F8BD10B50121D5
:10497000C9030920C00600F03FF80821124800F0E2
:104980003BF81021104800F035F820210E4800F0C7
:1049900031F8FF202D30FFF7E7FE0121C903092080
:1049A000C00600F027F80821074800F023F810217E
:1049B000054800F021F82021034800F01DF8FF20F1
:1049C0002D30FFF7D1FE10BD0004004870B54D0733
:1049D000EB0E082902DA0546203501E005462435AC
:1049E0002C460F269E402568B54316469E4035430B
:1049F000256070BD41617047016170470021C94366
:104A00000180012181700421C1707047002A01D00A
:104A1000016100E04161704700BFFEE770470000A0
:104A20008178002925D017490322120289180278BB
:104A300092109200895802789207D30EFF229A4072
:104A4000914342789207120E03789B07DB0E9A403F
:104A500011430C4A03231B02D21803789B109B00BE
:104A6000D1500178CA06D20E01219140054A116049
:104A700007E00178CA06D20E01219140014A803236
:104A80001160704700E100E010B5E120C00200F0C5
:104A900005F800F03DF800F0B5F810BD10B586B08F
:104AA00004460121880300F00FFA01A800F07BFD05
:104AB00001943021684601720021817201730174F2
:104AC0001021C18101A9114800F02AFD01210F48E0
:104AD00000F084FC0121480400F0D6F901220921EC
:104AE000C806FFF773FF05A8FFF788FF01214902F9
:104AF00068468182032181751821C17505A90920A5
:104B0000C006FFF7E6FE06B010BD00000038014009
:104B100008B50121480400F0B7F90121880400F02C
:104B2000B3F96846FFF76AFF0121C90368460180AF
:104B3000032181701021C17069460920C006FFF76A
:104B4000C8FE6846FFF75AFF3821684601800321F6
:104B500081701021C17069460948FFF7BAFE002133
:104B6000084600F00FF80021012000F00BF80021AA
:104B7000022000F007F80021032000F003F808BD30
:104B80000004004870B505460C46002D06D0012DE6
:104B900011D0022D1AD0032D2ED122E0012C01D0EC
:104BA000012000E0002002460121C9030920C006BF
:104BB000FFF72CFF21E0012C01D0012000E00020B4
:104BC000024608210E48FFF721FF16E0012C01D014
:104BD000012000E00020024610210948FFF716FFDF
:104BE0000BE0012C01D0012000E000200246202132
:104BF0000348FFF70BFF00E000BF00BF70BD0000DF
:104C000000040048F0B585B03AA000F0D9FC3FA000
:104C100000F0D6FC43A000F0D3FC434840680C21D0
:104C20000840002806D0042808D008280AD00C28FC
:104C30001BD116E03DA000F0C3FC17E044A000F03B
:104C4000BFFC13E0384840300069C007C00F00289F
:104C500003D048A000F0B4FC02E053A000F0B0FC88
:104C600004E05EA000F0ACFC00E000BF00BF6846BE
:104C700000F03AF92BA000F0A3FC0098FFF7E0FA4F
:104C8000064600225E4BFFF763FA044622460B46B7
:104C90005CA000F095FC0198FFF7D2FA06460022CE
:104CA000574BFFF755FA044622460B465DA000F02D
:104CB00087FC0298FFF7C4FA04460022504BFFF726
:104CC00047FA064632460B465EA000F079FC039890
:104CD000FFF7B6FA04460022494BFFF739FA0646B9
:104CE00032460B465FA000F06BFC0EA000F068FCA3
:104CF00005B0F0BD0D0A424F415244203A204D69A3
:104D00006E692D4630313434000000000D0A4D43E9
:104D100055203A204D4D33324630313434433650ED
:104D2000000000000D0A0000001002400D0A485368
:104D30004920757365642061732073797374656DA0
:104D400020636C6F636B20736F7572636500000086
:104D50000D0A48534520757365642061732073798B
:104D60007374656D20636C6F636B20736F75726312
:104D7000650000000D0A504C4C2028636C6F636B7B
:104D80006564206279204853452920757365642045
:104D900061732073797374656D20636C6F636B202E
:104DA000736F7572636500000D0A504C4C202863C8
:104DB0006C6F636B656420627920485349292075C4
:104DC0007365642061732073797374656D20636CFF
:104DD0006F636B20736F7572636500000D0A4C532F
:104DE0004920757365642061732073797374656DF0
:104DF00020636C6F636B20736F75726365000000D6
:104E000080842E410D0A535953434C4B2046726502
:104E10007175656E6379203A2025372E3366204DF3
:104E2000487A00000D0A48434C4B2020204672650A
:104E30007175656E6379203A2025372E3366204DD3
:104E4000487A00000D0A50434C4B312020467265D1
:104E50007175656E6379203A2025372E3366204DB3
:104E6000487A00000D0A50434C4B322020467265B0
:104E70007175656E6379203A2025372E3366204D93
:104E8000487A000070470000002905D0054A5269A1
:104E90000243044B5A6104E0024A52698243014BC7
:104EA0005A61704700100240002905D0054AD269B6
:104EB0000243044BDA6104E0024AD2698243014BA7
:104EC000DA61704700100240002905D0054A926956
:104ED0000243044B9A6104E0024A92698243014B07
:104EE0009A6170470010024038B504460DA0006872
:104EF000009000F051F8206000F01AF8606000F0B7
:104F000027F8A06000F036F8E060074A5268074BC7
:104F10001A4012096B46995CE068FFF7F1F82061CE
:104F200038BD000002040608001002407040000076
:104F300010B500F031F804494968F0221140090920
:104F4000024A515CC84010BD001002400E01002012
:104F500010B5FFF7EDFF054949680722120211401D
:104F6000090A034A515CC84010BD0000001002400D
:104F70000E01002010B5FFF7DBFF05494968072245
:104F8000D2021140C90A034A515CC84010BD00005A
:104F9000001002400E010020F8B5204840680C21A6
:104FA0000840042804D0082804D00C2830D12DE073
:104FB0001B4C2FE0194840300069C007C00F002883
:104FC0000AD016484030006902210840002801D06C
:104FD000144802E0124800E0114807460F484030EC
:104FE0000069FF2109040840000C451C0B484030B3
:104FF0000069072109020840000A461C3946694336
:1050000008463146FFF77CF8044603E0064C01E011
:10501000034C00BF00BF2046F8BD00000010024056
:1050200000127A0000093D00409C000000BFBFF361
:105030004F8F04480449C860BFF34F8F00BF00BFC3
:1050400000BFFDE70400FA0500ED00E010B50648DA
:1050500000F02CFA1C2000F0DBFA0020C04300F026
:10506000D7FA72B610BD000000440040704710B57A
:1050700000F040F810BD0000194800680121084305
:1050800017490860084640681649084014494860B6
:10509000084600681449084011490860084600683D
:1050A0000121890488430E49086008464068C321ED
:1050B000090488430A494860084600680B490840CB
:1050C000074908600648403000690949084004491A
:1050D000403108619F20000401498860704700004A
:1050E000001002400CC0FFF8FFFFF6FEFFFF8F002C
:1050F000FCF800FF10B586B000246C480068012160
:1051000008436A49086000BF6848006802210840F7
:105110000028F9D066486749086067480068102190
:1051200008436549086008460068C008C000086078
:10513000032005900846006805994907490F084370
:105140005D49086059484068F021884357494860E4
:105150000846406890210843544948600846406822
:105160000721C902884351494860084640684860A1
:10517000084640680721090288434C4948604D4869
:1051800000684B49884207D3484840680521090216
:105190000843464948600BE0464800684749884252
:1051A00006D3424840680121890208433F494860CC
:1051B0004348059001AB02AA3D490598FFF774FAF0
:1051C0003A48006801210906884338490860374891
:1051D00040300069800880003449403108610198FE
:1051E0000002072109020840039002980004FF21F1
:1051F0000904084004902D484030006931490840B6
:105200002A494031086108460069039A049911430C
:105210000843264940310861084600690C2188434B
:10522000224940310861084600690C2108431F49A2
:10523000403108611D4800680121090608431B49E7
:10524000086000E000BF19480068012149060840D5
:105250000028F7D01548406880088000134948604E
:1052600008464068022108431049486000E000BF3A
:105270000E4840680C2108400828F8D1012000F0B1
:105280009DFE0A4840681021884308494860012073
:1052900000F094FE05484068802188430349486037
:1052A000012000F08BFE204606B010BD0010024029
:1052B00000D8B8052001002000200240006CDC026C
:1052C00000127A00FFF800FF10B500F007F810BDDB
:1052D00010B5FFF7D1FEFFF7CAFE10BD0448006805
:1052E000002804D002480068401E01490860704749
:1052F0000801002070B500240221304800F0FDF8BC
:1053000000280ED02D4800F047F9C1B22C4805887E
:10531000681C2B4A10802B4841550221274800F079
:105320005BF82648C068012149020840002844D0A3
:105330000846224948612448007800283AD120488C
:105340000088062836D11E480088801E81B21D487C
:1053500000F012FE05461A480088801E1949085CB4
:10536000000217490988491E164A515C084306463F
:10537000164885421DD186421BD100240DE01448F9
:10538000015D0E4800F00CF900BF01210B4800F050
:10539000ABF80028F9D0601C84B2042CEFD3084885
:1053A0000088821E07490B48FEF7C0FE012006490F
:1053B000087000BF00200249088070BD0044004012
:1053C0000C0100203801002000010020E1930000C2
:1053D000D8600008010100204161704782695208CD
:1053E00052000A438261704710B586B0044601211D
:1053F0004804FFF759FD684600F0D5F800943021C5
:105400006846017100218171017201731821418187
:105410006946254800F084F801220221224800F064
:1054200075F8214800690121490208431E490861B5
:1054300001214804FFF728FD012202210920C006AE
:10544000FFF7C4FA012203210920C006FFF7BEFAC4
:1054500005A8FFF7D3FA04216846818203218175EC
:105460001821C17505A90920C006FFF732FA05A861
:10547000FFF7C4FA0821684681824821C17505A951
:105480000920C006FFF725FA1C2168460174012196
:105490004174817404A8FFF7C3FA01210248FFF7A1
:1054A0009DFF06B010BD00000044004010B504464A
:1054B0000A48844203D10120400400F09BFD0848C3
:1054C000844203D10120800300F0A0FD05488442FE
:1054D00003D10120800400F08DFD10BD0044004088
:1054E000003801400048004002469068084000280B
:1054F00001D0012070470020FCE70246D068084038
:10550000002801D0012070470020FCE7002A03D0CA
:1055100003690B43036102E003698B430361704736
:1055200070B504460D460026E0693021884329798C
:105530000843E061E06944218843A9790843E061B8
:10554000E06980088000297A0843E061A069182199
:10555000884369890843A061A06904218843297BA5
:105560000843A0610B48844203D1FFF703FD0646C0
:1055700002E0FFF7EDFC064630462968FEF7C0FD65
:105580000009206230462968FEF7BAFD0007000FC7
:10559000606270BD0038014001464868C0B2704783
:1055A000CAB2026070474B21C9010160302101710C
:1055B000002181710172182141810021017370471E
:1055C0000FB410B503A9044B044A029800F036F951
:1055D00010BC08BC04B01847256000083401002046
:1055E0002021020C01D010211046020A01D01046E1
:1055F0000839020901D01046091F820801D010465F
:10560000891E420801D0881E7047081A70470000A2
:10561000002809DBC206D20E01219140034A116025
:10562000BFF34F8FBFF36F8F7047000080E100E042
:1056300010B5002819DB1A4A03231B02D21883086D
:105640009B00D2588307DC0EFF23A3409A438B07AD
:105650001B0E8407E40EA3401A43114B03242402BB
:105660001B198408A4001A5118E00E4A03071B0FE7
:10567000083B9B089B00D2588307DC0EFF23A34006
:105680009A438B071B0E8407E40EA3401A43054B75
:105690000407240F083CA408A4001A5110BD000000
:1056A00000E100E01CED00E002E008C8121F08C1A4
:1056B000002AFAD170477047002001E001C1121F93
:1056C000002AFBD170470000F0B51FB486B00998DE
:1056D000089A030D0021024314D05148514A18186A
:1056E000504305141198012810981AD0281A401C0C
:1056F00000264D4F4D49009601910490002812DA82
:10570000444211E01198012449A3012801D11098C5
:10571000C1430698119A84600360C26041600BB077
:10572000F0BD4042E4E70446210500203F4A001C4A
:1057300051410391029012E0E00707D032463B4608
:1057400001990098FEF7CEFE0191009032463B464B
:1057500010461946FEF7C6FE06460F466410002C9A
:10576000EAD10498039B0028029A0999089806DA5E
:10577000FEF7B8FE019B009AFEF7B4FE05E0FEF7C7
:10578000E7FC019B009AFEF7E3FC04460E4600226C
:10579000284BFEF72FFF03D80020C043014607E047
:1057A0000022254B20463146FEF7E8FDFEF702FFBA
:1057B000102409E0002C0ADB0A220023FEF74EFD2C
:1057C000079B30321A55641E02460A43F2D1112259
:1057D000641C079B121B1C19119B012B03D0012376
:1057E00008430ED10AE0084304D011201090002095
:1057F000119077E71098151A6D1E0BE010988242F1
:1058000002DD00236D1C03E0824201DA00236D1EDD
:10581000002BEED0069811998260C16030C07EE7FF
:1058200001FCFFFF104D0000000014400000F03F9D
:10583000300000000000F0430000E03FFFB597B0EB
:10584000064600251BE2252876D100242746F74985
:10585000049400E00443761C32780120203A904002
:105860000842F7D130782A280ED00222307801463B
:105870003039092916D804990A2359433039401878
:105880001443761C0490F1E7189802C8049118900C
:10589000002904DA01204003044348420490022016
:1058A0000443761C30782E2814D1042004437078E9
:1058B000761C2A2809D11898761C80C8189009E00F
:1058C0000A214F43303FC719761C307801463039E2
:1058D0000929F5D930786C2810D006DC4C281AD06C
:1058E00068280ED06A2817D104E0742813D07A28CB
:1058F00012D110E00120400504430CE0012109050C
:1059000001E0032109050C437178814203D1012094
:1059100000052418761C761C307866280BD013DC22
:1059200058287DD009DC00287BD04528F6D04628B1
:10593000F4D047281AD1A9E118E0632835D06428AB
:1059400070D0652812D1A1E170286CD008DC6728DE
:10595000F1D069287DD06E280DD06F2806D1BCE02B
:1059600073282ED0752873D0782859D01A9A19998F
:1059700090476D1C82E16002400F022809D0032885
:105980000DD00428189801680DD00D60001D1890E6
:1059900074E11898EA1701680D604A60F6E71898F4
:1059A00001680D80F2E70D70F0E718986A460178FB
:1059B0001172001D18900020507202A80090012062
:1059C00005E0189802C8189000200091C0436107B4
:1059D0000ED5002101E00199491C0191B94213DA69
:1059E0008142F8DB019A0099895C0029F3D10BE030
:1059F000002101E00199491C01918142FADB019AE1
:105A00000099895C0029F5D1019904981A9B471ADD
:105A100021463846199A00F099FA4019019903E095
:105A200051E030E115E050E0451807E0009800999A
:105A30000078491C00911A9A199990470198401EC4
:105A40000190401CF2D1214638461A9B199A12E166
:105A500037E00A200021009001916002410F0229E5
:105A600007D0189A01CA1892C2179446032908D081
:105A70000AE01898C01DC108C90005C918919446CC
:105A800007E000B2C2179446042902D140B2C11700
:105A90008C4600226146944506DA0A4600214042BF
:105AA00091418C462D2102E0210504D52B216A4627
:105AB0001173012103E0E10701D02021F7E70291F2
:105AC00056E00A200AE0102008E010200090002193
:105AD000042004430191082703E0082000210191DC
:105AE00000906002410F022907D0189A01CA18924B
:105AF00000229446032908D008E01898C01DC10868
:105B0000C90005C91891944603E080B2042900D168
:105B1000C0B20021029121072AD531780D91702958
:105B200006D0009A1021019B4A401A4305D00EE08E
:105B300040216A461173012108E06146014306D005
:105B400030216A4611730D99517302210291009A16
:105B50000821019B4A401A430AD16146014301D101
:105B6000610705D530216A46117301217F1E02911C
:105B70003178582904D02EA10E910DA90D910DE078
:105B800030A1F9E76146019B009AFEF767FB0E9B87
:105B90008C469B5C0D9A521E0D9213706146014318
:105BA000F0D10D9805A9081A20300190600703D59F
:105BB00001200004844300E001270198874201DDB1
:105BC000381A00E000200199009041180298091845
:105BD0000498401A0490E00306D421461A9B199AAF
:105BE000049800F0B3F94519002706E003A81A9AB3
:105BF000C05D199990476D1C7F1C02988742F5DBA8
:105C0000E0030CD521461A9B199A049800F09EF9DE
:105C1000451904E01A9A3020199990476D1C009993
:105C2000481E00900029F5DC1FE000000928010053
:105C30003031323334353637383961626364656602
:105C400000000000303132333435363738394142C4
:105C500043444546000000000D980D990078491C0A
:105C60000D911A9A199990476D1C0199481E01903F
:105C70000029F1DC4DE100F059F94519761C307826
:105C8000002800D0DFE528461BB0F0BD600700D437
:105C900006271898C01DC108C90048680A6808315D
:105CA000C30FDB071891190001D09CA108E0210562
:105CB00001D59BA104E0E10701D09AA100E09AA1DF
:105CC0004300109130785B0865280CD006DC45282D
:105CD00009D046281DD0472841D141E0662818D078
:105CE00067283CD13CE00021112F01DB112000E0AE
:105CF000781C0191009008A911A8FFF7E5FC139901
:105D000005910021119A15927F1C1298019700911C
:105D100050E00120C00703900120019008A90097DE
:105D200011A8FFF7D1FC139A149905920022119B38
:105D3000009212981593059A0192002901D01046FD
:105D400002E0791C40180190381A01D5019804E04E
:105D50004042401E0090781C0190C01B029043E01E
:105D6000012F00DA01270021112F01DD112000E0B1
:105D700038460191009008A911A8FFF7A5FC1399D6
:105D80000591119A0021129815920091019721070F
:105D90000CD40599B94201DB019900E00191012978
:105DA00004DD159A491E515C302906D0B84201DA4B
:105DB000011D05DA0121029115E00199491EEDE767
:105DC000002805DC0099411800910199091A03E0A7
:105DD000019A411C914200DD01910099401A401C3A
:105DE00002900120C0070390200706D40299019871
:105DF000814202DB0020C043029000206946C87740
:105E000007AF012103980337C907884224D0022035
:105E100011902B201290039800280CDA4042039036
:105E20002D20129007E00A210398FEF769F930311E
:105E30007F1E039039701199481E11900029F2DCE1
:105E400003980028EFD1791E12980870307820212D
:105E500008404530BF1E387006A8C01BC01D039007
:105E600010980078002800D001200199411802986C
:105E7000C0170918039809180498401A401E049086
:105E8000E00306D421461A9B199A049800F05EF8A4
:105E9000451910980078002803D01A9A199990474C
:105EA0006D1CE00324D521461A9B199A049800F032
:105EB0004DF845191CE00098002807DB009905986B
:105EC000884203DD1598405C199901E0199930204A
:105ED0001A9A904700986D1C401C00900298401E32
:105EE0000290002804D11A9A2E20199990476D1C0F
:105EF0000199481E01900029DDDC05E038781A9AE6
:105F00007F1C199990476D1C0399481E0390002926
:105F1000F4DC21461A9B199A0498ACE62D00000087
:105F20002B0000002000000000000000F8B504462F
:105F300000251E461746880404D405E03946202073
:105F4000B0476D1C641EF9D52846F8BDFFB5044660
:105F5000002581B01E46C80301D5302700E0202768
:105F6000880404D505E038460399B0476D1C641ECB
:105F7000F9D5284605B0F0BD30B50246002017E03F
:105F80004B1E99B21478521C2302584000230DE096
:105F90000124E4030440002C04D04400064D6C406E
:105FA000A0B201E04404200C5C1CE3B2082BEFD348
:105FB0000029E5D130BD0000211000000EB5002100
:105FC0000291019164210091002102910DE00021D4
:105FD000019103E000BF0199491C0191009A0199C8
:105FE0009142F7D30299491C029102998142EED362
:105FF0000EBD0000044909690143034A11611146BD
:106000000969814311617047001002400449C96861
:106010000143034AD1601146C9688143D16070478A
:106020000010024070B504460D46E1B20548FFF786
:10603000B7FA00BF01210348FFF756FA0028F9D04C
:10604000204670BD0038014000F02AF8FEF762FBE0
:10605000FEF71AFDE1204002FFF7C6F918E00D48EF
:106060000078012812D1FEF7E9FB3520FEF792FBFC
:106070000948FEF795FBFEF7C7FB042206490748CF
:10608000FEF706FCFEF7E2FFFEF7D0FFFEF76EFC20
:10609000E5E7000000010020003C000801010020AD
:1060A00010B5002408E0A000094940180068A100CC
:1060B000084A5050601CC4B2302CF4DB0121084661
:1060C000FEF702FF0320FEF75BFB62B610BD000087
:1060D0000040000800000020F155AAF4FC60000810
:1060E0000001002038000000A856000834610008B4
:1060F0003801002018090000B85600080000000010
:10610000000000000000000000000000000001028C
:1061100003040102030406070809000000D8B805BB
:106120000000000000000000010203040607080947
:04613000000000006B
:04000005080040C1EE
:00000001FF
