:020000040800F2
:10000000B00D0020D9000008950B0008ED0A00088B
:1000100000000000000000000000000000000000E0
:10002000000000000000000000000000510F000868
:100030000000000000000000850D0008AD11000860
:10004000F1000008F1000008F1000008F1000008CC
:10005000F1000008F1000008F1000008F1000008BC
:10006000F1000008F1000008F1000008F1000008AC
:10007000F1000008F1000008F1000008F10000089C
:10008000F1000008F1000008F10000083512000836
:10009000F1000008F1000008F1000008F10000087C
:1000A000F1000008F1000008F1000008F10000086C
:1000B0003D130008F1000008F100000800000000F6
:1000C0000448854600F0C0FA0048004709210008AE
:1000D000C046C046B00D0020064880F30888064898
:1000E000804706480047FEE7FEE7FEE7FEE7FEE73B
:1000F000FEE70000B00D0020B5110008C1000008A7
:1001000030B50B46014600202022012409E00D46AF
:10011000D5409D4205D31D469540491B2546954037
:1001200040191546521E002DF1DC30BD70B500247B
:100130002546002801DA01244042002901DA012580
:100140004942FFF7DDFFAC4200D04042002C00D016
:10015000494270BD03460B439B0703D009E008C921
:10016000121F08C0042AFAD203E00B780370401C67
:10017000491C521EF9D2704730B50546002003468F
:1001800000E05B1C934205D2EC5CC85C201A01D1F4
:10019000002CF6D130BD0000F0B50C465C4085B0B7
:1001A000E40FE40703944C000026640859009446C9
:1001B000490802460296224321D062460A431ED0D5
:1001C0006200570D4A000E032303550D0124024619
:1001D0002C492405781B1B0B360B40182343264360
:1001E000614600901C46501AB44103D30098401C4D
:1001F000009002E0921800985B41002803DA00208A
:10020000014605B0F0BD00200121090507468646DC
:1002100011E064461D46141BB54106D36546521BCA
:10022000B341744607430C43A646CD07400849082E
:10023000284392185B4105460D43EAD11046184306
:1002400013D06046194650407140084306D06046BE
:10025000101AB34106D20122002306E00022012336
:10026000DB0702E00122D2435310009874460105D7
:10027000381C6141029C039D0019694100F034F86B
:10028000BFE70000FD030000F0B51FB406460020E4
:1002900082B005464024019100901BE0019922465E
:1002A0000F46304600F0F2F9049A059B801A9941F6
:1002B00010D310461946224600F0D8F9361A8F415D
:1002C0000197224601200021009F00F0CFF9381845
:1002D0004D4100902046641E0028DFDC019B009801
:1002E0002946324607B0F0BD10B5002B08DA0024CD
:1002F000401C614192185B411A4301D14008400003
:1003000010BDF0B51FB482B005460C0003D00846FE
:1003100001F02AF902E001F027F9203002460090AE
:100320002146284600F0A2F9049B059A04460F4690
:1003300018431143084314D0184610431BD00098AB
:1003400040210A1A1846059900F0A0F905460E4604
:10035000009A0599049800F089F9084305D0012016
:1003600004E02046394607B0F0BD0020C117054320
:100370000E432C43374300990E986305401A7905C4
:10038000E40A00220C43FD0A0A3002D5002001468F
:10039000E9E70105101969410C9C0D9D001969419F
:1003A000FFF7A2FFDFE70000F0B507460846584018
:1003B00087B0C00F049048000E4659004008490815
:1003C000BC1A884105D2384631461E4617460B46B0
:1003D00002465800400810434DD0300D03904005B0
:1003E0005900400D490D0590401A0290402873DADB
:1003F00018030121000B090508430190049800929D
:10040000002806D01146019A4942002090410091EF
:100410000190029840210A1A0199009800F026F9EB
:1004200005460C466B4607CB00F041F9C0197141F7
:10043000039A0E0D0023D71756401A467A401643EA
:1004400044D0049A002A2DD0029A012A039A15DC7E
:100450001205C01A914101263605001C7141D20FC8
:10046000059ED2070093019202962A462346FFF783
:1004700048FF07B0F0BD38463146FAE71605234A73
:100480000F46B218C01AB74101210905001C4F419F
:1004900000187F41114618187941E20F10436D1979
:1004A000644113E0E2076D0815436408C207144372
:1004B000039A01261205C01A91413605001C7141AC
:1004C000CE07400830434908C01851412A46234608
:1004D000FFF70AFFCDE7FFE7049801224000C117AC
:1004E000121A00238B4104983146C417381AA141CF
:1004F000EEE730B40124E407634030BC54E730B485
:100500000124E407614030BC4EE700000000E0FF3A
:10051000F0B51FB488B00B99099800244840099998
:10052000C00F490049080991C0070B990090490084
:1005300049080B9109990898A64608431CD00B99C5
:100540000A98084318D0099801244000420D480039
:10055000410D099824050003000B204309900B98D6
:100560000003000B20430B9050181C494018002238
:1005700001901446104605E0002001460DB0F0BD84
:10058000032801DA034600E003239C46C11A0AAEA1
:100590000AE05F0008ADED5B4F00F75B7D4300278D
:1005A000AA187C41491C5B1E6145F2DD410004AB89
:1005B0005A522104120C0A43240C401C0828DFDB89
:1005C000019802900099704601910090059B049A51
:1005D00007990698FFF795FED0E700000DFCFFFF96
:1005E0004A0009030123090B1B0519430A4B10B5E7
:1005F000520D9A4202DA0020014610BD064B3433F8
:100600009A4203DC9A1A00F041F810BD034BD2184D
:1006100000F02CF810BD0000FF030000CDFBFFFF31
:1006200010B5002904DB0124E40740428C41214637
:10063000002B04DB1C460123DB075242A3419942F5
:1006400000D1904210BD0000064C0125064E05E089
:10065000E36807CC2B430C3C98471034B442F7D3E3
:10066000FFF732FD082800082828000810B5202AC6
:1006700004DB0146203A9140002010BD9140202328
:100680009C1A0346E3401943904010BD10B5202A40
:1006900004DB0846203AD040002110BD0B46D34071
:1006A000D0402024A21A91400843194610BD10B52D
:1006B000202A06DBCB170846203A1041C1170B430E
:1006C00006E00B461341D0402024A21A9140084373
:1006D000194610BDFFB583B00C460294002001906E
:1006E000002726E000261CE0721C039951430846AF
:1006F000791CFFF705FD0546A54201D9281B00E03E
:10070000601B05460298A84204D902950598066028
:10071000069807600298002802D10120019002E0AB
:10072000761CFF2EE0D900BF0198002800D002E01F
:100730007F1C072FD6D900BF029807B0F0BD00007C
:1007400010B57D21C90010480068FFF7D9FC0446A8
:10075000601E0E49884201D901200CE0601E0C4940
:1007600048610321081F00F025FF00200849886127
:10077000072008610020002801D000BFFEE700210B
:10078000481E00F017FF10BD34000020FFFFFF00DF
:1007900000E000E001B504490098086000BF02488D
:1007A00000680028FBD108BD100000200149C86086
:1007B000704700000020024010B504460848006958
:1007C0000221084306490861084644610069402146
:1007D000084303490861034800F058F810BD0000C1
:1007E00000200240FF0F00000C48C068C007C00F87
:1007F000002801D0012070470848C0680421084043
:10080000002801D00220F6E70448C0681021084003
:10081000002801D00320EEE70420ECE7002002408E
:1008200003480069802108430149086170470000BE
:100830000020024030B504460D46054800690121FC
:1008400008430349086125800F2000F01FF830BDE0
:1008500000200240F0B503460C462546002006E085
:10086000298819540E12471CDE55AD1C801C90427D
:10087000F6D3F0BD0248034948600348486070471A
:100880002301674500200240AB89EFCD10B5024639
:1008900000BFFFF7A9FF0346521EFF2400E0641EBD
:1008A000002CFCD1012B01D1002AF2D100200549F6
:1008B00008613420C860002A01D1052010BD184607
:1008C000FCE7000000200240FEB505460E46174634
:1008D0000196FFF7CFFF3520FFF768FF00240FE0F8
:1008E000285D0090601C285C00020099084300907D
:1008F00000990198FFF79EFF0198801C0190A41CAD
:10090000BC42EDD3FFF78CFFFEBD10B50446FFF7E8
:10091000B1FF3520FFF74AFF2046FFF74DFFFFF7F5
:100920007FFF10BD70B504460D462946204600F0F5
:10093000A7F8002804D12946204600F0ACF803E0CF
:100940002946204600F0A5F870BDF8B50246CD78DE
:100950002F073F0FCD7810263540002D01D08D7820
:100960002F431446002011E085062B0E0D8801262A
:1009700086403540002D07D025680F269E40B543A0
:100980003E469E4035432560451CE8B20828EBDB17
:10099000141D0D882D120095002011E085062B0EE8
:1009A00001258540009E3540002D07D025680F2683
:1009B0009E40B5433E469E4035432560451CE8B207
:1009C0000828EBDBCD78282D04D155690E883543F6
:1009D000556106E0CD78482D03D115690E88354361
:1009E0001561F8BD10B50821044800F054F8012144
:1009F000C9030920C00600F04EF810BD00040048ED
:100A000010B50121C9030920C006FFF78BFF10BDF7
:100A100010B508210148FFF785FF10BD000400480C
:100A200010B50821044800F036F80121C903092057
:100A3000C00600F02EF810BD0004004810B50821D3
:100A4000044800F026F80121C9030920C00600F07F
:100A500022F810BD0004004870B54D07EB0E0829C0
:100A600002DA0546203501E0054624352C460F26DE
:100A70009E402568B54316469E403543256070BDAF
:100A80000246D0680840002801D0012070470020AD
:100A9000FCE741617047016170470021C943018053
:100AA000012181700421C1707047002A01D00161C9
:100AB00000E04161704700001EB50B4A0A40012367
:100AC000DB069A420AD1FF2212020A40920A0192E0
:100AD000019A9202D21800925A1402926A461CCAD3
:100AE0001CC00C381EBD00000000FF0800BFFEE760
:100AF00010B526480088401C244908802448007806
:100B0000030000F048FD0733050F191F291C3600AC
:100B10000F211E480088FFF709FB002901D1FFF7CC
:100B200077FF27E0322119480088FFF7FFFA0029F4
:100B300001D1FFF76DFF1DE0FFF780FF1AE0FFF71F
:100B40006FFF17E00F2111480088FFF7EFFA002927
:100B500001D1FFF755FF0DE032210C480088FFF767
:100B6000E5FA002901D1FFF74BFF03E0FFF73AFF59
:100B700000E000BF00BF054800887D21C900884211
:100B800002DD00200149088010BD0000080000209F
:100B900002000020704700008178002925D0174905
:100BA0000322120289180278921092008958027862
:100BB0009207D30EFF229A40914342789207120E79
:100BC00003789B07DB0E9A4011430C4A03231B0258
:100BD000D21803789B109B00D1500178CA06D20E20
:100BE00001219140054A116007E00178CA06D20E42
:100BF00001219140014A80321160704700E100E01C
:100C000010B5E120C00200F009F800F041F800F052
:100C1000D7FAE120400200F0C9FB10BD10B586B044
:100C200004460121880300F0CFF801A800F07FFC02
:100C300001943021684601720021817201730174B0
:100C40001021C18101A9114800F02EFC01210F489B
:100C500000F0A6FB0121480400F096F801220921CA
:100C6000C806FFF7F9FE05A8FFF717FF01214902A3
:100C700068468182032181751821C17505A9092063
:100C8000C006FFF762FE06B010BD0000003801404C
:100C900008B50121480400F077F80121880400F02C
:100CA00073F86846FFF7F9FE0121C9036846018021
:100CB000032181701021C17069460920C006FFF729
:100CC00044FE6846FFF7E9FE3821684601800321AB
:100CD00081701021C17069460948FFF736FE002176
:100CE000084600F00FF80021012000F00BF8002169
:100CF000022000F007F80021032000F003F808BDEF
:100D00000004004870B505460C46002D06D0012DA4
:100D100011D0022D1AD0032D2ED122E0012C01D0AA
:100D2000012000E0002002460121C9030920C0067D
:100D3000FFF7BBFE21E0012C01D0012000E00020E4
:100D4000024608210E48FFF7B0FE16E0012C01D044
:100D5000012000E00020024610210948FFF7A5FE0F
:100D60000BE0012C01D0012000E0002002462021F0
:100D70000348FFF79AFE00E000BF00BF70BD00000F
:100D80000004004870470000002905D0054A526958
:100D90000243044B5A6104E0024A52698243014B08
:100DA0005A61704700100240002905D0054AD269F7
:100DB0000243044BDA6104E0024AD2698243014BE8
:100DC000DA61704700100240002905D0054A926997
:100DD0000243044B9A6104E0024A92698243014B48
:100DE0009A6170470010024038B504460DA00068B3
:100DF000009000F051F8206000F01AF8606000F0F8
:100E000027F8A06000F036F8E060074A5268074B08
:100E10001A4012096B46995CE068FFF771F920618E
:100E200038BD0000020406080010024070400000B7
:100E300010B500F031F804494968F0221140090961
:100E4000024A515CC84010BD001002402200002040
:100E500010B5FFF7EDFF054949680722120211405E
:100E6000090A034A515CC84010BD0000001002404E
:100E70002200002010B5FFF7DBFF05494968072273
:100E8000D2021140C90A034A515CC84010BD00009B
:100E90000010024022000020F8B5204840680C21D4
:100EA0000840042804D0082804D00C2830D12DE0B4
:100EB0001B4C2FE0194840300069C007C00F0028C4
:100EC0000AD016484030006902210840002801D0AD
:100ED000144802E0124800E0114807460F4840302D
:100EE0000069FF2109040840000C451C0B484030F4
:100EF0000069072109020840000A461C3946694377
:100F000008463146FFF7FCF8044603E0064C01E0D2
:100F1000034C00BF00BF2046F8BD00000010024097
:100F200000127A0000093D00409C000013200028B8
:100F300009DBC206D20E01219140044A1160BFF3C1
:100F40004F8FBFF36F8F00BF72B6704780E100E034
:100F5000704710B500F040F810BD00001948006857
:100F600001210843174908600846406816490840AF
:100F7000144948600846006814490840114908604F
:100F8000084600680121890488430E490860084624
:100F90004068C321090488430A494860084600683C
:100FA0000B49084007490860064840300069094974
:100FB00008400449403108619F20000401498860CD
:100FC00070470000001002400CC0FFF8FFFFF6FE63
:100FD000FFFF8F00FCF800FF10B586B000246C48BE
:100FE0000068012108436A49086000BF684800683A
:100FF000022108400028F9D0664867490860674820
:101000000068102108436549086008460068C00868
:10101000C00008600320059008460068059949074C
:10102000490F08435D49086059484068F0218843EA
:101030005749486008464068902108435449486031
:10104000084640680721C90288435149486008465C
:1010500040684860084640680721090288434C49B7
:1010600048604D4800684B49884207D3484840686B
:10107000052109020843464948600BE046480068DC
:101080004749884206D34248406801218902084303
:101090003F4948604348059001AB02AA3D49059885
:1010A000FFF718FB3A4800680121090688433849D0
:1010B000086037484030006980088000344940317A
:1010C0000861019800020721090208400390029874
:1010D0000004FF210904084004902D4840300069B5
:1010E000314908402A494031086108460069039A9D
:1010F00004991143084326494031086108460069B4
:101100000C218843224940310861084600690C21BE
:1011100008431F49403108611D4800680121090644
:1011200008431B49086000E000BF1948006801211E
:10113000490608400028F7D015484068800880001C
:101140001349486008464068022108431049486036
:1011500000E000BF0E4840680C2108400828F8D184
:10116000012000F0CBFE0A4840681021884308495E
:101170004860012000F0C2FE054840688021884395
:1011800003494860012000F0B9FE204606B010BDBA
:101190000010024000D8B8053400002000200240B2
:1011A000006CDC0200127A00FFF800FF10B500F0BE
:1011B000B9F810BD10B5FFF7D1FEFFF7CAFE10BD9C
:1011C00000B589B06846FFF70FFE01210804FFF75C
:1011D000FBFD05A800F09CF814490398FEF790FF6A
:1011E000401E81B26846818200218175632006908D
:1011F00068468183817705A90D4800F055F80121E3
:101200000B4800F027F801221146094800F041F888
:10121000132108A80170012141708170FFF7BCFC07
:101220000121034800F01CF809B000BD10270000A0
:101230000040014010B50121054800F01DF80028CC
:1012400005D0FFF755FC0121014800F006F810BD5C
:1012500000400140CA4302617047CA4302617047BF
:10126000002904D0026801231A43026003E00268E7
:101270005208520002607047024610690840002878
:1012800005D0D0680840002801D001207047002018
:10129000FCE7002A03D0C3680B43C36002E0C368C5
:1012A0008B43C36070470000026803231B029A430C
:1012B0000B891A430260134A904209D00122920717
:1012C000904205D0104A904202D0104A904205D177
:1012D000026870239A438B781A430260094A90424D
:1012E00002D00A4A904205D1026B120A12028B7A8E
:1012F0001A4302634A68C2620A888262012242611A
:1013000070470000002C014000040040000801402C
:101310000021C943416000210180018181708172F7
:101320007047000004480068002804D002480068A4
:10133000401E0149086070471000002010B50221CE
:10134000134800F09EF800280ED0114800F0E8F88D
:10135000C1B210480488601C0E4A10800E48015526
:1013600002210B4800F01AF80948C068012149021F
:10137000084000280AD00846054948610548018808
:10138000054801F0F5F800200249088010BD000072
:101390000044004020000020FC0400204161704710
:1013A0008269520852000A438261704710B586B0C4
:1013B000044601214804FFF7F7FC684600F0B7F83F
:1013C000009430216846017100218171017201731E
:1013D000182141816946254800F066F80122022162
:1013E000224800F057F821480069012149020843CA
:1013F0001E49086101214804FFF7C6FC01220221B1
:101400000920C006FFF728FB012203210920C0069E
:10141000FFF722FB05A8FFF740FB04216846818205
:10142000032181751821C17505A90920C006FFF7A0
:101430008CFA05A8FFF731FB082168468182482114
:10144000C17505A90920C006FFF77FFA1C2168466F
:10145000017401214174817404A8FFF79DFB0121EF
:101460000248FFF79DFF06B010BD00000044004099
:10147000024690680840002801D0012070470020F3
:10148000FCE70246D0680840002801D001207047E0
:101490000020FCE7002A03D003690B43036102E04C
:1014A00003698B430361704770B504460D460026FF
:1014B000E0693021884329790843E061E0694421EB
:1014C0008843A9790843E061E06980088000297AAF
:1014D0000843E061A0691821884369890843A06135
:1014E000A06904218843297B0843A0610B488442FA
:1014F00003D1FFF7BFFC064602E0FFF7A9FC064652
:1015000030462968FEF7FCFD000920623046296854
:10151000FEF7F6FD0007000F606270BD0038014065
:1015200001464868C0B27047CAB2026070474B219A
:10153000C9010160302101710021817101721821FE
:1015400041810021017370470FB410B503A9044B0A
:10155000044A029800F034F910BC08BC04B01847E3
:1015600015200008480000202021020C01D0102185
:101570001046020A01D010460839020901D010466F
:10158000091F820801D01046891E420801D0881E1A
:101590007047081A704730B47446641E2578641C7E
:1015A000AB4204D3635D5B00E31830BC18471D46B3
:1015B000F8E7000010B5002819DB1A4A03231B02C4
:1015C000D21883089B00D2588307DC0EFF23A34068
:1015D0009A438B071B0E8407E40EA3401A43114B5A
:1015E000032424021B198408A4001A5118E00E4A8F
:1015F00003071B0F083B9B089B00D2588307DC0E98
:10160000FF23A3409A438B071B0E8407E40EA340DD
:101610001A43054B0407240F083CA408A4001A51E0
:1016200010BD000000E100E01CED00E002E008C891
:10163000121F08C1002AFAD170477047002001E04C
:1016400001C1121F002AFBD170470000F0B51FB482
:1016500086B00998089A030D0021024314D051481E
:10166000514A1818504305141198012810981AD09F
:10167000281A401C00264D4F4D49009601910490B8
:10168000002812DA444211E01198012449A30128EC
:1016900001D11098C1430698119A84600360C2601A
:1016A00041600BB0F0BD4042E4E704462105002054
:1016B0003F4A001C51410391029012E0E00707D01D
:1016C00032463B4601990098FEF722FF01910090B7
:1016D00032463B4610461946FEF71AFF06460F46AD
:1016E0006410002CEAD10498039B0028029A0999FF
:1016F000089806DAFEF70CFF019B009AFEF708FF38
:1017000005E0FEF749FD019B009AFEF745FD044602
:101710000E460022284BFEF783FF03D80020C0436B
:10172000014607E00022254B20463146FEF73CFEED
:10173000FEF756FF102409E0002C0ADB0A220023E2
:10174000FEF7A2FD079B30321A55641E02460A437B
:10175000F2D11122641C079B121B1C19119B012B37
:1017600003D0012308430ED10AE0084304D011201E
:1017700010900020119077E71098151A6D1E0BE05D
:101780001098824202DD00236D1C03E0824201DAE0
:1017900000236D1E002BEED0069811998260C16067
:1017A00030C07EE701FCFFFF104D00000000144038
:1017B0000000F03F300000000000F0430000E03F78
:1017C000FFB597B0064600251BE2252876D10024F8
:1017D0002746F749049400E00443761C3278012040
:1017E000203A90400842F7D130782A280ED00222C1
:1017F000307801463039092916D804990A2359430B
:10180000303940181443761C0490F1E7189802C848
:1018100004911890002904DA01204003044348424F
:10182000049002200443761C30782E2814D1042022
:1018300004437078761C2A2809D11898761C80C831
:10184000189009E00A214F43303FC719761C3078C1
:10185000014630390929F5D930786C2810D006DCDA
:101860004C281AD068280ED06A2817D104E07428B2
:1018700013D07A2812D110E00120400504430CE077
:101880000121090501E0032109050C43717881421A
:1018900003D1012000052418761C761C30786628B8
:1018A0000BD013DC58287DD009DC00287BD04528DC
:1018B000F6D04628F4D047281AD1A9E118E06328C9
:1018C00035D0642870D0652812D1A1E170286CD081
:1018D00008DC6728F1D069287DD06E280DD06F28EC
:1018E00006D1BCE073282ED0752873D0782859D043
:1018F0001A9A199990476D1C82E16002400F0228E4
:1019000009D003280DD00428189801680DD00D6067
:10191000001D189074E11898EA1701680D604A607C
:10192000F6E7189801680D80F2E70D70F0E7189857
:101930006A4601781172001D18900020507202A8AA
:101940000090012005E0189802C81890002000912E
:10195000C04361070ED5002101E00199491C0191A6
:10196000B94213DA8142F8DB019A0099895C0029B7
:10197000F3D10BE0002101E00199491C0191814262
:10198000FADB019A0099895C0029F5D10199049844
:101990001A9B471A21463846199A00F099FA4019BD
:1019A000019903E051E030E115E050E0451807E00F
:1019B000009800990078491C00911A9A199990474B
:1019C0000198401E0190401CF2D1214638461A9BD6
:1019D000199A12E137E00A2000210090019160027B
:1019E000410F022907D0189A01CA1892C2179446CB
:1019F000032908D00AE01898C01DC108C90005C90C
:101A00001891944607E000B2C2179446042902D107
:101A100040B2C1178C4600226146944506DA0A4658
:101A20000021404291418C462D2102E0210504D540
:101A30002B216A461173012103E0E10701D0202127
:101A4000F7E7029156E00A200AE0102008E0102093
:101A500000900021042004430191082703E008209E
:101A60000021019100906002410F022907D0189ACD
:101A700001CA189200229446032908D008E0189859
:101A8000C01DC108C90005C91891944603E080B281
:101A9000042900D1C0B20021029121072AD5317852
:101AA0000D91702906D0009A1021019B4A401A43DB
:101AB00005D00EE040216A461173012108E061461D
:101AC000014306D030216A4611730D9951730221EA
:101AD0000291009A0821019B4A401A430AD16146AB
:101AE000014301D1610705D530216A4611730121F7
:101AF0007F1E02913178582904D02EA10E910DA994
:101B00000D910DE030A1F9E76146019B009AFEF7C7
:101B1000BBFB0E9B8C469B5C0D9A521E0D92137064
:101B200061460143F0D10D9805A9081A20300190B3
:101B3000600703D501200004844300E001270198D9
:101B4000874201DD381A00E0002001990090411819
:101B5000029809180498401A0490E00306D421461C
:101B60001A9B199A049800F0B3F94519002706E06A
:101B700003A81A9AC05D199990476D1C7F1C0298A2
:101B80008742F5DBE0030CD521461A9B199A04988D
:101B900000F09EF9451904E01A9A302019999047EF
:101BA0006D1C0099481E00900029F5DC1FE0000024
:101BB0000928010030313233343536373839616223
:101BC00063646566000000003031323334353637E7
:101BD0003839414243444546000000000D980D99B4
:101BE0000078491C0D911A9A199990476D1C01991A
:101BF000481E01900029F1DC4DE100F059F945192A
:101C0000761C3078002800D0DFE528461BB0F0BDF8
:101C1000600700D406271898C01DC108C90048688D
:101C20000A680831C30FDB071891190001D09CA185
:101C300008E0210501D59BA104E0E10701D09AA1AC
:101C400000E09AA14300109130785B0865280CD021
:101C500006DC452809D046281DD0472841D141E05F
:101C6000662818D067283CD13CE00021112F01DB09
:101C7000112000E0781C0191009008A911A8FFF73D
:101C8000E5FC139905910021119A15927F1C129879
:101C90000197009150E00120C007039001200190BE
:101CA00008A9009711A8FFF7D1FC139A149905927F
:101CB0000022119B009212981593059A0192002917
:101CC00001D0104602E0791C40180190381A01D565
:101CD000019804E04042401E0090781C0190C01B17
:101CE000029043E0012F00DA01270021112F01DDCE
:101CF000112000E038460191009008A911A8FFF7D3
:101D0000A5FC13990591119A002112981592009142
:101D1000019721070CD40599B94201DB019900E034
:101D20000191012904DD159A491E515C302906D024
:101D3000B84201DA011D05DA0121029115E001998D
:101D4000491EEDE7002805DC009941180091019932
:101D5000091A03E0019A411C914200DD01910099AA
:101D6000401A401C02900120C0070390200706D4AF
:101D700002990198814202DB0020C04302900020BA
:101D80006946C87707AF012103980337C90788421E
:101D900024D0022011902B201290039800280CDAF6
:101DA000404203902D20129007E00A210398FEF78D
:101DB000A7F930317F1E039039701199481E119098
:101DC0000029F2DC03980028EFD1791E12980870E0
:101DD0003078202108404530BF1E387006A8C01B4F
:101DE000C01D039010980078002800D001200199B0
:101DF00041180298C0170918039809180498401A46
:101E0000401E0490E00306D421461A9B199A0498B8
:101E100000F05EF8451910980078002803D01A9A4F
:101E2000199990476D1CE00324D521461A9B199AF5
:101E3000049800F04DF845191CE00098002807DBD5
:101E400000990598884203DD1598405C199901E0D6
:101E5000199930201A9A904700986D1C401C0090E8
:101E60000298401E0290002804D11A9A2E20199937
:101E700090476D1C0199481E01900029DDDC05E0AA
:101E800038781A9A7F1C199990476D1C0399481E3F
:101E900003900029F4DC21461A9B199A0498ACE6B9
:101EA0002D0000002B0000002000000000000000BA
:101EB000F8B5044600251E461746880404D405E0FC
:101EC00039462020B0476D1C641EF9D52846F8BD60
:101ED000FFB50446002581B01E46C80301D5302752
:101EE00000E02027880404D505E038460399B04770
:101EF0006D1C641EF9D5284605B0F0BD0EB5002155
:101F00000291019164210091002102910DE00021D4
:101F1000019103E000BF0199491C0191009A0199C8
:101F20009142F7D30299491C029102998142EED362
:101F30000EBDF0B587B004460F4600252646214663
:101F400001A8FEF7B9FD01A807C804AB07C3FEF757
:101F500091FC3520FEF72AFC069904984018E119F7
:101F6000401A03D00498FEF727FC17E0069904985E
:101F70004018001B4519761900BF314601A8FEF72D
:101F80009BFD01A807C804AB07C30498FEF714FC27
:101F90000698861906984519BD42EED2FEF740FC18
:101FA000002007B0F0BD0000FEB507460D461646FE
:101FB0000297FEF75FFC3520FEF7F8FBF007C00F35
:101FC000002816D1019600240FE0285D0090601CC7
:101FD000285C000200990843009000990298FEF7DF
:101FE00029FC0298801C0290A41C01988442ECD326
:101FF00002E003A0FFF7A8FAFEF712FC0020FEBDE6
:10200000696E7075742064617461206973206F64F7
:1020100064210A0070B504460D46E1B20548FFF799
:1020200083FA00BF01210348FFF722FA0028F9D004
:10203000204670BD00380140FEB505460F461A48DF
:102040000190002401261948006800901FE000F06C
:102050003DF8B04212D3012E00D01DE0144C207880
:10206000012802D02078022807D12078401E4000A5
:102070006946085A401D86B200E00DE0019800282C
:1020800005D10CA0FFF760FA0020C043FEBD019807
:10209000411E01910028DAD100BF0548286000F0F8
:1020A00005FA0020F2E7000033333300042800086B
:1020B0004C0000200D0A786D6F64656D20727820E9
:1020C00074696D656F757421000000000148006837
:1020D0007047000014000020094802684168C003EE
:1020E00082420BD30748824208D84002814205D37E
:1020F00081200005814201D8012070470020FCE7C3
:10210000004000080000042008B500250026FFF765
:10211000E3FF00205D490870FEF712FBFEF770FD3B
:1021200004225B496846FEF795FB5AA0FFF70CFABC
:10213000002407E06846025D21465EA0FFF704FA2E
:10214000601CC4B2042CF5DB04225E496846FEF72D
:1021500013F8002807D15CA0FFF7F6F902204B49DD
:102160000870012511E0042261496846FEF704F871
:10217000002807D15FA0FFF7E7F905204349087061
:10218000012502E065A0FFF7DFF9002D42D072B60D
:1021900004223F496846FEF75DFB04224949684630
:1021A000FDF7EAFF00280BD0042251496846FDF7ED
:1021B000E3FF002804D061A0FFF7C6F962B62AE069
:1021C00062B600F077FA00281AD1FFF785FF0028E1
:1021D0000BD003202D49087019204001FEF7DAFAD0
:1021E00001265DA0FFF7B0F914E00620274908702A
:1021F00019204001FEF7CEFA5EA0FFF7A5F909E02D
:1022000006202249087019204001FEF7C3FA60A099
:10221000FFF79AF900BF002E1CD072B667A0FFF737
:1022200093F91B48FEF771FB042219496848FEF731
:102230004BFB62B667A0FFF787F97D200001FEF730
:10224000A9FAFEF773FEBFF34F8F68486849C8606C
:1022500000BFFEE7FFF740FF00280CD065A0FFF7A6
:1022600073F9FEF763FE6949086880F3088800BFC8
:102270004868804707E066A0FFF766F90420034935
:10228000087000BFFEE700BFFEE70000020000206C
:10229000003C00080D0A5B426F6F746C6F616465EF
:1022A000725D20466C61736820526561643A0D0A64
:1022B000000000005B25645D203D20307825303231
:1022C00058200000F82700080D0AD3D0C9FDBCB67D
:1022D000C7EBC7F3A3A856616C6964A3A9A3ACD7E5
:1022E000BCB1B8C9FDBCB62E2E2E0D0A00000000F0
:1022F000FC2700080D0AD3D0C9FDBCB6C7EBC7F355
:10230000A3A8426C616E6BA3A9A3ACD7BCB1B8C93A
:10231000FDBCB62E2E2E0D0A000000000D0ACEDEEA
:10232000C9FDBCB6C7EBC7F3A3ACBCECB2E94150E6
:1023300050D7B4CCAC2E2E2E0D0A00000D0AC9FDCC
:10234000BCB6B1EAD6BED2ECB3A3A3ACC8A1CFFB56
:10235000C9FDBCB60D0A00000D0AC9FDBCB6B3C963
:10236000B9A6A3AC415050D1E9D6A4D3D0D0A70D83
:102370000A0000000D0AC9FDBCB6CAA7B0DCA3BAAA
:10238000415050D0B4C8EBCEDED0A70D0A000000FB
:102390000D0AC9FDBCB6CAA7B0DCA3BA586D6F64FC
:1023A000656DB4ABCAE4CAA7B0DCA3A8B3ACCAB12C
:1023B000BBF2B4EDCEF3A3A90D0A00000D0AC7E5E8
:1023C000B3FDC9FDBCB6B1EAD6BE2E2E2E0D0A0055
:1023D000002800080D0A32C3EBBAF3D7D4B6AFB861
:1023E000B4CEBB2E2E2E0D0A000000000400FA050C
:1023F00000ED00E00D0A415050D3D0D0A7A3ACCCE3
:10240000F8D7AAD6C14150500D0A0000004000087C
:102410000D0ACEDED3D0D0A7415050A3ACB5C8B47E
:10242000FDC9FDBCB62E2E2E0D0A0000014600206F
:102430007047000070B506460D46144619480068FE
:10244000A04211D818490968164A1268881800F085
:1024500033F81449096840181249086008460068B2
:10246000002801D1401E70BD224629460E48006852
:1024700000F03BF8002812D10B48006800190A4907
:10248000086008480068A04202D20020C043EAE782
:1024900004480068001B034908600020E3E70020AF
:1024A000C043E0E70C0000200400002000200149A8
:1024B000086070471400002010B586B00446012162
:1024C0002046FFF736FD002802D0002006B010BDE0
:1024D00021466846FEF7F0FA684607C803AB07C313
:1024E000039905984018001BF0E770B504460D46A7
:1024F0001646324629462046FFF756FD002800D1F1
:1025000070BD0020C043FBE710B5044621460648D5
:10251000FFF70AF800BF01210348FEF7A9FF0028D2
:10252000F9D0002010BD00000044004030B5024644
:10253000002017E04B1E99B21478521C2302584019
:1025400000230DE00124E4030440002C04D04400E7
:10255000064D6C40A0B201E04404200C5C1CE3B2C8
:10256000082BEFD30029E5D130BD00002110000079
:1025700070B505460C460C48006800194B2109014E
:10258000884202D30020084908600849064A1268B8
:10259000881822462946FDF7DDFD0348006800192A
:1025A0000149086070BD0000140000204C000020AC
:1025B00070B504460D4600262078401C2070207817
:1025C000A84207DB1820FFF79FFF1820FFF79CFFAA
:1025D000FF2603E01520FFF797FF0026304670BD69
:1025E000F0B5FFB0FFB087B005460024002728787B
:1025F000012801D1802705E02878022801D147026F
:1026000000E0FF24781D86B23246294603A8FDF774
:10261000A1FD00210291002C39D1B01E03A9085C54
:102620000002711E03AA515C014301913946D01C7E
:10263000FFF77CFF009001990098884201D00120AB
:1026400004430298002801D0042004436846407BDC
:1026500015490978884201D0022004436846417B2D
:10266000807B0818FF2801D002200443002C0AD1E7
:102670003A4603A903310D480068FFF7DBFE002846
:1026800001D00620044301200949087000BF002C36
:1026900004D105480078401C0349087020467FB0EB
:1026A0007FB007B0F0BD0000180000201C00002023
:1026B000190000203EB500210291019100204249FD
:1026C00008700120414908704320FFF71DFF73E0A7
:1026D0000020009001216846FFF7AEFC0446002C64
:1026E00017D039480078002813D14320FFF70CFF9A
:1026F00037480088401C36490880084600880A2868
:1027000012DB00200880FF20029032A0FEF71CFFA1
:102710000AE0002C08D02C480078012804D10A21B6
:1027200001A8FFF745FF0290FF25009800780128D7
:1027300006D0022805D0042820D0182832D12EE057
:1027400000BF0098FFF74CFF0546002D03D106207F
:10275000FFF7DAFE11E0062D0AD122A0FEF7F4FE03
:102760000A2001900A2101A8FFF722FF029004E04D
:102770000A2101A8FFF71CFF02901BE00620FFF7CB
:10278000C3FE002010490870012010490870194844
:102790000068FFF74BFE0020164908603EBDFF2091
:1027A000029007E0002C04D10A2101A8FFF700FFE6
:1027B000029000BF00BF00BF6846007A002887D0A3
:1027C0000020C043EAE700001900002018000020A4
:1027D000000000200D0A54696D656F7574204578FE
:1027E00069742100585F4552524F525F464C415325
:1027F000480D0A001C00002055AA1188FFFFFFFFAA
:1028000000000000800000042828000800000020CC
:102810004C0000002C160008742800084C00002012
:10282000640D00003C160008000000000040000895
:102830000000000000000000000000000000000098
:102840000101000000000000000000000000010283
:1028500003040102030406070809000000D8B805B4
:102860000000000000000000010203040607080940
:042870000000000064
:04000005080000C12E
:00000001FF
